:100000000C9446000C9465000C9465000C946500FB
:100010000C9465000C944D020C9403020C94650042
:100020000C9465000C9465000C9424010C946500FC
:100030000C9465000C9465000C9465000C946500AC
:100040000C94270F0C9465000C9465000C946500CB
:100050000C9465000C9465000C9465000C9465008C
:100060000C9465000C9465000C9465000C9465007C
:100070000C9465000C9465000C9465000C9465006C
:100080000C9465000C9465000C94650011241FBE4F
:10009000CFEFD0E1DEBFCDBF13E0A0E0B1E0E2EEF4
:1000A000F6E200E00BBF02C007900D92AC34B1073E
:1000B000D9F717E0ACE4B3E001C01D92A135B10758
:1000C000E1F70E9459010C946F130C940000F8940E
:1000D0008FEF84BB8FE08093640078940895F89448
:1000E0008FEF8ABB1BBA78940895F89480E187BBA0
:1000F00083E085BD87E083BF81E487BF84E682BF5C
:1001000078940895F89417B887E886B97894089594
:10011000F8948FEF84BB1092640078940895F8945B
:100120001ABA1BBA78940895369A349BFECF24B13C
:1001300045B1942F80E030E0282B392BC901089578
:100140000F931F938C016AE070E00E94EF12FB0195
:1001500020E031E0E20FF31F4081C8016AE070E067
:100160000E94EF12280F391FF901808185BBE5E657
:10017000F0E081E0808320ED37E0C9010197F1F7DD
:1001800045BB82E08083C9010197F1F71F910F9170
:100190000895CF92DF92EF92FF920F931F93C0903A
:1001A0005403D0905503AA2797FDA095BA2FBC0100
:1001B000CD010E9482107B018C0188E090E0B601A5
:1001C0000E94EF12882777FD8095982F0E94821059
:1001D0009B01AC01C801B7010E94880F0E94E0108A
:1001E000FB016930710514F0E8E0F0E0EE0FFF1F4D
:1001F000E05FFE4F80818BBB1F910F91FF90EF90CE
:10020000DF90CF90089580E585BBE5E6F0E081E0E2
:10021000808320ED37E0C9010197F1F789E785BBBD
:1002200082E08083C9010197F1F78EE385BB84E00A
:100230008083C9010197F1F78FE385BB88E0808354
:10024000C9010197F1F708951F920F920FB60F920F
:1002500011242F938F939F9380914C0390914D0382
:10026000892BC9F080913701909138018F5F9F4FA2
:1002700091F080914E0390914F030197A1F0C49AA1
:1002800081E090E090934F0380934E03809137017B
:100290009091380184BD9F918F912F910F900FBE47
:1002A0000F901F901895C49810924F0310924E0310
:1002B000EDCF0E94CF0DF8949FEF94BB8FE0809319
:1002C00064007894F8949ABB1BBA78940E947500E5
:1002D000F89417B887E886B978948FEC82B980E3F0
:1002E00089BF8AE08ABF789480E090E00E943A0556
:1002F000909358038093570381E090E00E941A0680
:100300009093DB048093DA0481E069E573E00E9456
:1003100061049093DD048093DC048BE093E060E063
:1003200070E049ED53E020E00E945B088AE992E02A
:1003300060E070E049E554E021E00E945B088DEA4E
:1003400091E060E070E049ED54E022E00E945B083B
:100350000E944F0D80E090E008959F92AF92BF926F
:10036000CF92DF92EF92FF920F931F938091DC0464
:100370009091DD0464E042E020E030E009E513E024
:100380000E942D0C20E030E0E0E59E2EAA24A394EC
:1003900000ED17E079E7C72E62E0B62E5EE3E52EAA
:1003A00044E0D42E4FE398E0F92EC90162E370E0F7
:1003B0000E94EF12FB01ED5CFE4F808190E0909374
:1003C00038018093370195BAA0926500C801019762
:1003D000F1F7C5BAB0926500C8010197F1F7E5BA27
:1003E000D0926500C8010197F1F745BBF092650016
:1003F000C8010197F1F72F5F3F4F283C3105ACF260
:1004000020E030E0D2CF1F920F920FB60F920BB6C2
:100410000F9211242F933F934F935F936F937F938A
:100420008F939F93AF93BF93EF93FF938091390185
:1004300090913A01892BD1F08091DA049091DB04FC
:1004400060E070E049E553E00E94CE0881E090E072
:10045000909353038093520310923A011092390102
:100460008091DA049091DB040E94AF0880E49FE160
:100470000197F1F7FF91EF91BF91AF919F918F910C
:100480007F916F915F914F913F912F910F900BBE94
:100490000F900FBE0F901F9018951F920F920FB6DE
:1004A0000F920BB60F9211242F933F934F935F93AC
:1004B0006F937F938F939F93AF93BF93EF93FF932C
:1004C0008091390190913A01892BE9F08091DA0409
:1004D0009091DB0460E070E049E553E00E94CE08B3
:1004E0008091540390915503019669E270E00E9457
:1004F000EF1290935503809354038091DA04909106
:10050000DB040E94AF0880E49FE10197F1F7FF91BF
:10051000EF91BF91AF919F918F917F916F915F917B
:100520004F913F912F910F900BBE0F900FBE0F90E8
:100530001F901895AF92BF92CF92DF92EF92FF92E9
:100540000F931F93DF93CF9300D0CDB7DEB7A0E911
:10055000CA2EA1E0DA2EF1E0AF2EB12C8091570324
:100560009091580360E070E049E553E00E94680B09
:10057000FC01E080F1808091DC049091DD0462E078
:1005800042E820E030E009E513E00E942D0C1A82D9
:10059000198289819A81E816F906F4F089819A8195
:1005A0000E94A00089819A810E94C9000E94940043
:1005B0008B5C934028F489819A8101969A83898380
:1005C00080ED97E0F6013197F1F70197D9F789812E
:1005D0009A81E816F90614F78091DA049091DB0409
:1005E00060E070E049E553E00E94CE08B0924D0310
:1005F000A0924C038091DA049091DB040E94AF0832
:100600008091DC049091DD0464E041E029E533E071
:100610000E94B60BA3CFEF92FF920F931F93DF932D
:10062000CF9300D0CDB7DEB77E010894E11CF11C5A
:100630008091DC049091DD0461E042E820E030E04C
:1006400009E513E00E942D0CF894109255031092C6
:10065000540378941A821982809152039091530323
:10066000892B81F489819A810E94A0008091540392
:10067000909155039A8389838091520390915303FB
:10068000892B81F38091570390915803B7010E9401
:100690004E0B8091DC049091DD0462E041E029E59D
:1006A00033E00E94B60BC4CFFA018083929312927A
:1006B000129212921292129212921292129212921A
:1006C000129212921292129212921292129212920A
:1006D00012921292129212921292129212926293A9
:1006E0007293129212921292129212921292129289
:1006F00080E882933197CF01089508950895089571
:100700000895089508950895089508958091DF0447
:10071000813009F0089580919E058F3FD9F38F5F56
:1007200080939E0508958091DF04813009F008953B
:10073000F8948091DE048F3F19F08F5F8093DE0480
:10074000789408958CEF90E00895FF920F931F9393
:10075000CF93DF93EC018B01F42E3981E32FF0E08E
:10076000ED5BFE4F2081422F50E0FA01E55CFE4F29
:100770007081DC01A40FB51F16969C911697E92F86
:10078000F0E0ED5BFE4F8081E82FF0E0E55CFE4F8E
:100790006081220F220F220F280F862F8095892338
:1007A00016968C93882321F4872F809538233983DC
:1007B000E22FF0E0EE0FFF1FED5CF84F0190F081AB
:1007C000E02D1486138617821682118700878F2DDD
:1007D0008095958589238587882359F4809198058C
:1007E000872B80939805FA01E756FA4F8081682B92
:1007F0006083822FDF91CF911F910F91FF90089519
:10080000CF93DF93EC01A0919F05B091A0051796BF
:100810009C938E93169750968C915097482F50E04A
:1008200051963C915197FA01E756FA4F832F8095E4
:100830009081892380838823A9F452962C91922F4A
:10084000909580919805892380939805FE01E40F87
:10085000F51F8681832B86838981822B8983DF9193
:10086000CF91089552962C91F1CFCF93DF93EC0165
:10087000A0919F05B091A00550968C915097FE01D4
:10088000E80FF11D51968C9151978095968189239F
:100890008683882339F452969C915297909589814A
:1008A000892389831D961C921D9717961C921E9270
:1008B0001697DF91CF910895FC011182168217825D
:1008C0000895282FDB0180919E058823D9F4F894A0
:1008D000E0913007F0913107309779F08181928172
:1008E000909331078093300785E0808323831282C1
:1008F000118278941C92CF01089578948AE98C93A0
:10090000CF0108958DE88C93E0E0F0E0F4CFEF9212
:10091000FF920F931F93CF93DF937C01FB01A09174
:100920009F05B091A0051D968C911D9780621D9624
:100930008C931D971C961C930E931B9740872187C1
:10094000B583A483E70189819A819183808313828F
:100950001282F782E68289819A81009719F0EC0170
:100960007B836A83E701FA83E9835096EC91509781
:10097000F0E0E756FA4F51968C915197809590810F
:1009800089238083882341F452969C91909580918D
:100990009805892380939805DF91CF911F910F913E
:1009A000FF90EF90089585EE94E090933107809347
:1009B00030071092E5041092E7041092E6040895BF
:1009C000CF93DF93FC01A281B381C081D1811097C5
:1009D00051F01196DC93CE93209711F0BB83AA833C
:1009E000DF91CF9108950680F781E02DD283C183F6
:1009F0002097B1F31B821A82DF91CF9108951F9344
:100A0000CF93DF93EC01AC81BD811C961C921E92AA
:100A10001B971A966C931A971D968C911D978F7D34
:100A20001D968C931D978823E1F48091980552962A
:100A30009C915297892B809398055096EC915097F2
:100A4000F0E0E756FA4F808151969C91892B808384
:100A500011E0CE010E94E004812FDF91CF911F9120
:100A6000089510E0CE010E94E004812FDF91CF9124
:100A70001F9108959C0180919E058823D9F4F894D4
:100A8000E0919B05F0919C05309731F08481958130
:100A900090939C0580939B057894309749F081E072
:100AA00080831382128235832483118216821782F7
:100AB000CF010895E0E0F0E0CF010895CF93DF93F8
:100AC000982FEB0180919E05882309F042C0F8948D
:100AD000292F30E0D901AA0FBB1FAD5CB84F8D9113
:100AE0009C911197892B19F581E090E011969C93C8
:100AF0008E93E0919B05F0919C05309709F18481DC
:100B0000958190939C0580939B05789484E08083E5
:100B1000922F88278F6F938382831582148211828C
:100B2000168217821882CF01DF91CF9108957894B1
:100B300088E28883E0E0F0E0CF01DF91CF91089573
:100B40001D921C92789484E08883CF01DF91CF912D
:100B500008958DE88883E0E0F0E0E5CF9C01809186
:100B60009E05882309F052C0F894E0919B05F0910E
:100B70009C05309731F08481958190939C058093FA
:100B80009B0578943097A9F1F894A0919605B091BF
:100B90009705109781F18D919C91119790939705EE
:100BA00080939605789413963C932E931297CB01DD
:100BB000880F991F820F931F15969C938E931497FD
:100BC00017963C932E93169719963C932E9318974D
:100BD0001B967C936E931A971D961C921E921C97DF
:100BE00082E0808313821282B583A48311821682ED
:100BF0001782CF01089580919B0590919C05958364
:100C00008483F0939C05E0939B057894E0E0F0E00A
:100C1000CF01089586E895E0909379058093780553
:100C20000E971092870510928605909397058093F2
:100C3000960508959C0180919E058823D9F4F89427
:100C4000E0919B05F0919C05309731F0848195816E
:100C500090939C0580939B057894309749F083E0AE
:100C60008083338322831582148211821682178235
:100C7000CF010895E0E0F0E0CF0108951F93CF93F6
:100C8000DF93182FF894C0917405D09175052097C3
:100C900009F456C08A819B819093750580937405F1
:100CA0007894798368831E871D861C861B86E12FB6
:100CB000E695E695E695E88BF0E0E55CFE4F8081F1
:100CC0008A8BE12FE770EF87F0E0E55CFE4F8081D3
:100CD000898B1F821E8219861886CE010E94850389
:100CE000CE010E947D03F894E12FF0E0EE0FFF1F8C
:100CF000ED5CF84FD183C083E091EA04F091EB04FE
:100D0000FB83EA831D821C82309711F0D583C48354
:100D1000D093EB04C093EA04809198059A89892BBB
:100D200080939805E889F0E0E756FA4F8081998929
:100D3000892B8083789480E0DF91CF911F91089573
:100D4000789486E4DF91CF911F910895F894809173
:100D5000E0049091E104A091E204B091E3040196D3
:100D6000A11DB11D8093E0049093E104A093E204DF
:100D7000B093E30478940E948403E8CFF8948091C0
:100D80009E05882309F03FC08091DE048823D9F5B1
:100D9000E0919805F0E0ED5BFE4F8081E82FF0E0F8
:100DA000E756FA4FE081F0E0ED5BFE4F982F990F88
:100DB000990F990F8081980F9093E4048091E90432
:100DC000981709F1E92FF0E0EE0FFF1FED5CF84FE7
:100DD00080819181909395058093940580916C0515
:100DE00090916D05A0916E05B0916F050196A11DC2
:100DF000B11D80936C0590936D05A0936E05B09323
:100E00006F050E948D0E789408959C01009721F142
:100E1000F894A0919F05B091A0055096EC91509741
:100E2000F0E0E756FA4F51968C915197809590815A
:100E300089238083882349F452969C9152979095F8
:100E4000809198058923809398051C963C932E9356
:100E50001B9778940E94BE0608958F929F92AF923E
:100E6000BF92CF92DF92EF92FF920F931F93CF9397
:100E7000DF93882E162F942E8823C9F01C3300F59B
:100E80008BE3891590F093E0283E3907D8F083E58D
:100E9000DF91CF911F910F91FF90EF90DF90CF9056
:100EA000BF90AF909F908F90089582E5F1CF662319
:100EB00029F7442329F72115310529F784E5E8CFDF
:100EC00081E5E6CFB90180E090E024E630E040E043
:100ED00050E00E94D0126C507E4F8F4F9F4F28EEF3
:100EE00033E040E050E00E94021359016A01612F93
:100EF00070E080E090E02CE330E040E050E00E94C1
:100F0000D0127B018C01E90CF11C011D111D682D13
:100F100070E080E090E020E13EE040E050E00E94A0
:100F2000D012E60EF71E081F191FC801B70124E6EC
:100F300030E040E050E00E94D012A60EB71EC81E5E
:100F4000D91E760100271127E7018FEF9FEFA0E060
:100F5000B0E0A822B922CA22DB22C5010E940507FF
:100F6000EF2851F080E090E80E94050780E090E8CB
:100F70000E9405072197B1F780E08ACFDF92EF92B8
:100F8000FF920F931F9380913207882341F488ECDE
:100F900090E00E940507809132078823C1F3609199
:100FA000700570917105809172059091730524E62A
:100FB00030E040E050E00E940213C901DA017C01F8
:100FC0008D01F4E6DF2E10C0A80197010E940213E4
:100FD0008D2D821B87FD44C0809376050E9480037F
:100FE00084E690E00E940507F8948091E0049091D7
:100FF000E104A091E204B091E30480934D07909343
:101000004E07A0934F07B09350076091E004709192
:10101000E1048091E2049091E3041092E0041092C4
:10102000E1041092E2041092E3047894E114F104D4
:101030000105110549F610927605609170057091D1
:101040007105809172059091730524E630E040E0CF
:1010500050E00E940213C901DA017C018D01BECF6C
:1010600010927605BBCF82E090E00E940507F894CD
:101070001092E0041092E1041092E2041092E30452
:10108000789484E690E00E940507F8948091E0044B
:101090009091E104A091E204B091E3048093700583
:1010A00090937105A0937205B093730581E08093CE
:1010B000320778940895AF92BF92CF92DF92EF9269
:1010C000FF920F931F93CF93DF93FC01122FF8949D
:1010D000C22FD0E0CC0FDD1FCD5CD84F8881998125
:1010E000892B71F0789418E2812FDF91CF911F91B5
:1010F0000F91FF90EF90DF90CF90BF90AF90089549
:1011000081E090E0998388837894CF0120E030E0FB
:101110000E945403BC01812F40E050E020E030E009
:10112000EE24FF248701CC24DD24AA24BB240E94C2
:101130003E06182F882371F4F894809177058F5F0D
:101140008093770578948091DF04813069F60E945E
:10115000BE06CACFF894198218827894C5CFFC01D4
:10116000F8948181882379F4828193812FEF8F3FD6
:10117000920731F0019693838283789480E00895FA
:10118000789482E30895CF0160E070E041E00E942E
:10119000A50378940E94BE0680E008950F931F93E4
:1011A000CF93DF93EC018A0180919E05882381F41F
:1011B000F8948A819B81009799F001979B838A8399
:1011C0007894FA011082DF91CF911F910F910895C9
:1011D00082E0FA018083DF91CF911F910F910895F2
:1011E000E0919F05F091A0058585816085877487D2
:1011F0006387CE010E94000478940E94BE06F89492
:10120000E0919F05F091A005858580FD0AC01782B9
:1012100016827894F8011082DF91CF911F910F917F
:101220000895CE010E94350478948AE0F801808305
:10123000CACFFC01F8948181882351F5A481B5813E
:101240001C962D913C911D971A968D919C911B9700
:101250002817390718F078948EE108951696ED91C5
:10126000FC911797619371931796FC93EE931697E1
:101270002F5F3F4F1D963C932E931C9714968D9194
:101280009C911597E817F90761F0789480E008952C
:10129000CF0144E00E94A50378940E94BE0680E03E
:1012A000089512968D919C91139717969C938E9307
:1012B0001697EBCFEF92FF920F931F93CF93DF938D
:1012C0008C017A0180919E05882309F05CC0F89416
:1012D000F801A481B5811C968D919C911D97009772
:1012E00009F11896ED91FC911997C191D191199638
:1012F000FC93EE93189701971D969C938E931C97E1
:1013000014968D919C911597E817F90799F17894A7
:10131000F7011082CE01DF91CF911F910F91FF90C5
:10132000EF900895E0919F05F091A0058585846078
:10133000858774876387C8010E94000478940E949F
:10134000BE06F894E0919F05F091A005C085D18577
:101350002097F9F0118610861586178216827894E8
:10136000F7011082CE01DF91CF911F910F91FF9075
:10137000EF90089512968D919C91139719969C93D6
:101380008E931897C4CF82E0FA018083C0E0D0E04A
:10139000C1CFC8010E94350478948AE0F7018083A8
:1013A000B9CFCF93DF93EC0180919E058823A1F400
:1013B000F8943A814B81A0919F05B091A0051E96AB
:1013C0008C911E97841761F0381709F454C07894F3
:1013D00088E7DF91CF91089585E0DF91CF9108955F
:1013E0005096EC915097F0E0E756FA4F51968C9159
:1013F00051978095908189238083882349F4529660
:101400009C91529790958091980589238093980597
:101410001E963C931E97E32FE695E695E69550962B
:10142000EC935097F0E0E55CFE4F208152962C93B0
:101430005297E32FE7701F96EC931F97F0E0E55C5F
:10144000FE4F908151969C93519780919805822BE5
:10145000809398055096EC915097F0E0E756FA4F3C
:101460008081982B9083E32FF0E0EE0FFF1FED5C5F
:10147000F84FB183A083E42FF0E0EE0FFF1FED5C87
:10148000F84F81E090E0918380838981882361F423
:101490008A819B818F6F9B838A831D821C827894B3
:1014A00080E0DF91CF910895CE0160E070E040E1EF
:1014B0000E94A503E82FF0E08A819B8180708E2B2B
:1014C0009F2B9B838A83EE0FFF1FED5CF84F80817B
:1014D00091819D838C8378940E94BE0680E079CFB1
:1014E0000F931F93CF93DF93EC018A0180919E05A8
:1014F0008823A1F5F8942A813B812F3F09F460C02D
:10150000432FAC81BD811E968C911E97831709F4E1
:1015100052C0E0919F05F091A0058685821708F4DE
:1015200067C085858061858774876387CE010E9447
:10153000000478940E94BE06F894E0919F05F09113
:10154000A005858584FD9EC0178216827894F801D7
:101550001082DF91CF911F910F91089582E0FA01DF
:101560008083DF91CF911F910F9108951E963C9338
:101570001E97E32FE695E695E6955096EC935097E7
:10158000F0E0E55CFE4F808152968C935297E32FFA
:10159000E7701F96EC931F97F0E0E55CFE4F8081AB
:1015A00051968C935197E42FF0E0EE0FFF1FED5C06
:1015B000F84FB183A083E0919F05F091A005B1CFD2
:1015C000C90180709B838A83E0919F05F091A005FB
:1015D000268530E0282B392B3B832A83FD83EC833F
:1015E0007894FA011082DF91CF911F910F910895A5
:1015F00050968C915097E82FF0E0E756FA4F5081C3
:1016000051969C915197852F892309F4AFCF892F4B
:10161000809585238083882349F452969C91529724
:101620009095809198058923809398051E964C93F8
:101630001E97E42FE695E695E6955096EC93509725
:10164000F0E0E55CFE4F208152962C935297E42FF8
:10165000E7701F96EC931F97F0E0E55CFE4F9081DA
:1016600051969C93519780919805822B8093980571
:101670005096EC915097F0E0E756FA4F8081982B06
:10168000908391CFCE010E94350478948AE0F801CE
:101690008083DF91CF911F910F910895FC01F89401
:1016A0008181882339F484819581892B61F0789434
:1016B00084E10895CF0142E00E94A50378940E943E
:1016C000BE0680E0089575836483789480E0089571
:1016D000EF92FF920F931F93CF93DF938C017A01C8
:1016E00080919E058823A1F5F894F801C481D581E5
:1016F000209769F0158214827894FA011082CE0145
:10170000DF91CF911F910F91FF90EF900895E0919D
:101710009F05F091A0058585826085877487638722
:10172000C8010E94000478940E94BE06F894E091DB
:101730009F05F091A005C085D185209779F011868D
:1017400010861586178216827894F7011082D7CFFB
:1017500082E0FA018083C0E0D0E0D1CFC8010E94CE
:10176000350478948AE0F7018083C9CFCF92DF9265
:10177000EF92FF920F931F93DF93CF930F92CDB70A
:10178000DEB78C017901F894442309F054C06095C8
:10179000FC01838186238383F801C180D280C11438
:1017A000D10409F458C019820AC08330B1F1F6019E
:1017B000808191819C01690121153105D1F0F601EB
:1017C0008185823091F7F6016085F8018381862357
:1017D000681769F7C6010E94FF04813041F7F1E004
:1017E000F983F601808191819C0169012115310500
:1017F00031F77894F981F13059F1F894F801838147
:101800007894F70110820F90CF91DF911F910F9183
:10181000FF90EF90DF90CF900895F6016085F8017A
:101820008381682309F4C3CFC6010E94FF0481307D
:1018300009F0BDCFD4CF413031F0789489E9F90176
:10184000808380E0E0CFFC018381862B8383A4CF5B
:101850000E94BE06D2CF1982CCCF8F929F92AF92B8
:10186000BF92CF92DF92FF920F931F93DF93CF939C
:10187000CDB7DEB72B970FB6F894DEBF0FBECDBF46
:101880006C01562FF42EF901580180919E05882392
:1018900009F547FD24C01B86F89482E0F81639F15B
:1018A000A3E0FA16C9F1789487E9F501808380E016
:1018B0002B960FB6F894DEBF0FBECDBFCF91DF9150
:1018C0001F910F91FF90DF90CF90BF90AF909F90AE
:1018D0008F90089582E0D8018C9380E0E9CFBFE734
:1018E000FB2221E02B87F89482E0F816C9F6D60196
:1018F00013969C91852F8923851709F5BB85B130F7
:1019000031F4852F80958923F6018383982F892FC1
:101910007894D5011C92CCCFD60113969C91852F3B
:10192000892369F1BB85B13029F480958923F601BB
:101930008383982F892F7894D5011C92B9CFC60143
:101940004E010894811C911CB401452F22E08F01A7
:101950000E94870478940E94BE06F894E0919F0547
:10196000F091A005858585FD17C0BB85B13011F1CB
:10197000F6019381892F7894D5011C9299CFC601E5
:101980004E010894811C911CB401452F23E08F0166
:101990000E9487047894DFCFC4010E94E004E091A4
:1019A0009F05F091A005158678948AE0D5018C9367
:1019B00080E07ECF2EEFF20E81E08F1520F4D6016D
:1019C00013969C91D7CF82858095F60193819823B9
:1019D0009383D0CF8091DF04813009F00895F8948B
:1019E0008091DE04882359F081508093DE0488239F
:1019F00021F480919E05882321F0789408957894AD
:101A0000089578940E94BE0608950E9481038091F3
:101A1000DF04813009F00895A091EA04B091EB044D
:101A20001E968C911E978C30B1F32091980541E061
:101A300050E01AC052968C915297282B5096EC91F8
:101A40005097F0E0E756FA4F808151969C9151975C
:101A5000892B808312960D90BC91A02D78941E96B0
:101A60008C911E978C30C1F0F8941B968D919C91AF
:101A70001C97009779F301971C969C938E931B9764
:101A8000892B41F71D968C911D9783FFD3CF1C9610
:101A90005C934E931B97DECF209398050895809119
:101AA000DF0481110895E0919805F0E0ED5BFE4FB1
:101AB000A081EA2FF0E0E756FA4FE081F0E0ED5B1D
:101AC000FE4FAA0FAA0FAA0F8081A80FA093E404CB
:101AD000A093E904B0E0AA0FBB1FAD5CB84F8D9195
:101AE0009C9190939505809394059093A005809385
:101AF0009F050E94590E08958091DF04813009F0FE
:101B00000895F89480919E05882339F08150809340
:101B10009E05882311F0789408958091DE0488232F
:101B2000D1F7E0919805F0E0ED5BFE4F8081809366
:101B30009D05E82FF0E0E756FA4FE081F0E0ED5B1D
:101B4000FE4F982F990F990F990F8081980F9093BE
:101B5000E4048091E9049817F1F2E92FF0E0EE0F28
:101B6000FF1FED5CF84F80819181909395058093E4
:101B7000940580916C0590916D05A0916E05B091D2
:101B80006F050196A11DB11D80936C0590936D05A5
:101B9000A0936E05B0936F050E94F00EBCCF0E941B
:101BA000820310929E051092DE0410927705109227
:101BB000DF0410926C0510926D0510926E05109264
:101BC0006F051092E0041092E1041092E20410926A
:101BD000E304109298051092990510929A051092BC
:101BE000E9041092E4041092950510929405109265
:101BF000A00510929F051092EB041092EA04E3E313
:101C0000F7E01192119227E0ED34F207D1F78CE45E
:101C100096E0FC01719791838083439627E080339F
:101C20009207B9F71092200710921F0789E396E0F8
:101C300090937505809374051092210689E296E0D1
:101C40009093260680932506109229060896909375
:101C50002E0680932D06409710923106109236067C
:101C60001092350690939C0580939B0585EE94E039
:101C700090933107809330071092E5041092E704A7
:101C80001092E6040E940A0686EA96E060E070E0A0
:101C900040E256E02CE00E945B088EEB97E060E0AB
:101CA00070E04BE655E02BE00E945B080E94830346
:101CB00008950E947F030091DF0403950093DF04E1
:101CC000E0919405F0919505C191CDBFD191DEBF12
:101CD0000F910FBF0F910BBFFF91EF91DF91CF914C
:101CE000BF91AF919F918F917F916F915F914F9134
:101CF0003F912F911F910F91FF90EF90DF90CF9028
:101D0000BF90AF909F908F907F906F905F904F901B
:101D10003F902F901F900F9008950F921F922F9237
:101D20003F924F925F926F927F928F929F92AF926B
:101D3000BF92CF92DF92EF92FF920F931F932F9358
:101D40003F934F935F936F937F938F939F93AF9343
:101D5000BF93CF93DF93EF93FF930BB70F930FB71F
:101D60000F93E0919F05F091A005CDB7C193DEB729
:101D7000D1930E947F030091E4040093E904E09171
:101D80009405F0919505E0939F05F093A005C1910E
:101D9000CDBFD191DEBF0F910FBF0F910BBFFF9150
:101DA000EF91DF91CF91BF91AF919F918F917F91F3
:101DB0006F915F914F913F912F911F910F91FF90E4
:101DC000EF90DF90CF90BF90AF909F908F907F90DB
:101DD0006F905F904F903F902F901F900F900895BD
:101DE0000E947F030091E4040093E904E0919405CC
:101DF000F0919505E0939F05F093A005C191CDBFAB
:101E0000D191DEBF0F910FBF0F910BBFFF91EF91EB
:101E1000DF91CF91BF91AF919F918F917F916F9102
:101E20005F914F913F912F911F910F91FF90EF90F4
:101E3000DF90CF90BF90AF909F908F907F906F90EA
:101E40005F904F903F902F901F900F9008950F92AA
:101E50001F922F923F924F925F926F927F928F923A
:101E60009F92AF92BF92CF92DF92EF92FF920F9329
:101E70001F932F933F934F935F936F937F938F9312
:101E80009F93AF93BF93CF93DF93EF93FF930BB7E2
:101E90000F930FB700680F9300919E050395009371
:101EA0009E05013041F4CDB7DEB7E0919F05F0917A
:101EB000A005C193D19304E602BF78940E94050D5A
:101EC00000000E947C0D0F910FBF0F910BBFFF917F
:101ED000EF91DF91CF91BF91AF919F918F917F91C2
:101EE0006F915F914F913F912F911F910F91FF90B3
:101EF000EF90DF90CF90BF90AF909F908F907F90AA
:101F00006F905F904F903F902F901F900F9008958B
:101F1000A0E2B0E0EEE8FFE00C94381369837A8326
:101F20008B839C832D833E834F835887CE010196FC
:101F3000BE01675F7F4F0E945812CE010596BE0119
:101F40006F5E7F4F0E9458129985923088F0898980
:101F50008230C8F0943019F4823051F404C08430D7
:101F600029F4923081F483E492E0C6C0923049F4BF
:101F700020E09A858A89981321E02A87CE01099664
:101F8000BBC0823049F420E09A858A89981321E009
:101F90002A8BCE014196B0C02D843E844F84588850
:101FA0006D887E888F88988CEE24FF248701AA2470
:101FB000BB24650140E050E060E070E0E0E0F0E06C
:101FC000C10181709070892BE9F0E60CF71C081DA7
:101FD000191D9A01AB012A0D3B1D4C1D5D1D80E0B2
:101FE00090E0A0E0B0E0E614F7040805190520F43D
:101FF00081E090E0A0E0B0E0BA01A901480F591FCC
:102000006A1F7B1FAA0CBB1CCC1CDD1C97FE08C0E2
:1020100081E090E0A0E0B0E0A82AB92ACA2ADB2A31
:102020003196E032F10549F0660C771C881C991C4A
:102030005694479437942794C3CFFA85EA892B891D
:102040003C898B859C85280F391F2E5F3F4F17C019
:10205000CA0181709070892B61F016950795F794ED
:10206000E79480E090E0A0E0B0E8E82AF92A0A2BA3
:102070001B2B76956795579547952F5F3F4F77FDBB
:10208000E7CF0CC0440F551F661F771F17FD416037
:10209000EE0CFF1C001F111F21503040403090E01B
:1020A000590790E0690790E4790760F32B8F3C8F24
:1020B000DB01CA018F779070A070B07080349105F9
:1020C000A105B10561F447FD0AC0E114F104010561
:1020D000110529F0405C5F4F6F4F7F4F40781A8E9B
:1020E000FE1711F081E08A8F4D8F5E8F6F8F78A37E
:1020F00083E0898FCE0149960E948311A096E2E188
:102100000C945413A8E0B0E0E8E8F0E10C9441131B
:102110009B01AC0183E08983DA01C9018827B7FDFF
:1021200083959927AA27BB27B82E2115310541058C
:10213000510519F482E089833AC08823A9F0203040
:1021400080E0380780E0480780E8580729F460E01D
:1021500070E080E09FEC30C0EE24FF248701E21A9B
:10216000F30A040B150B02C079018A018EE1C82E17
:10217000D12CDC82CB82ED82FE820F831887C801CE
:10218000B7010E94341101971816190684F4082E1D
:1021900004C0EE0CFF1C001F111F0A94D2F7ED8241
:1021A000FE820F831887C81AD90ADC82CB82BA82D2
:1021B000CE0101960E9483112896E9E00C945D13EC
:1021C000ACE0B0E0E6EEF0E10C94481369837A836A
:1021D0008B839C83CE010196BE016B5F7F4F0E9473
:1021E00058128D81823061F1823050F1843021F4B7
:1021F0008E81882351F12EC02F81388537FD20C074
:102200006E812F3131051CF06623F9F023C08EE179
:1022100090E0821B930B29853A854B855C8504C031
:1022200056954795379527958A95D2F76623B1F04D
:1022300050954095309521953F4F4F4F5F4F0EC0C1
:1022400020E030E040E050E009C02FEF3FEF4FEFDB
:102250005FE704C020E030E040E050E8B901CA0187
:102260002C96E2E00C946413EF92FF920F931F936D
:102270007B018C0180E0E81680E0F80681E0080729
:1022800080E0180788F48FEFE816F10401051105C6
:1022900031F028F088E090E0A0E0B0E017C080E0E6
:1022A00090E0A0E0B0E012C080E0E81680E0F80620
:1022B00080E0080781E0180728F088E190E0A0E0BE
:1022C000B0E004C080E190E0A0E0B0E020E230E0C7
:1022D00040E050E0281B390B4A0B5B0B04C01695FD
:1022E0000795F794E7948A95D2F7F701E55BFD4FE0
:1022F0008081281B310941095109C9011F910F91A2
:10230000FF90EF900895DF92EF92FF920F931F934B
:10231000FC01E480F58006811781D18080818230C4
:1023200048F480E090E0A0E1B0E0E82AF92A0A2B26
:102330001B2BA5C0843009F49FC0823021F4EE2409
:10234000FF24870105C0E114F1040105110519F40A
:10235000E0E0F0E096C0628173819FEF6238790718
:102360000CF05BC022E83FEF261B370B2A3131050A
:102370002CF020E030E040E050E02AC0B801A70196
:10238000022E04C076956795579547950A94D2F723
:1023900081E090E0A0E0B0E004C0880F991FAA1F80
:1023A000BB1F2A95D2F70197A109B1098E219F2160
:1023B000A023B1230097A105B10521F081E090E0B1
:1023C000A0E0B0E09A01AB01282B392B4A2B5B2B04
:1023D000DA01C9018F779070A070B07080349105D8
:1023E000A105B10539F427FF09C0205C3F4F4F4FCD
:1023F0005F4F04C0215C3F4F4F4F5F4FE0E0F0E084
:102400002030A0E03A07A0E04A07A0E45A0710F005
:10241000E1E0F0E079018A0127C06038710564F5D8
:10242000FB01E158FF4FD801C7018F779070A07072
:10243000B07080349105A105B10539F4E7FE0DC0F7
:1024400080E490E0A0E0B0E004C08FE390E0A0E082
:10245000B0E0E80EF91E0A1F1B1F17FF05C01695F6
:102460000795F794E794319687E016950795F794CA
:10247000E7948A95D1F705C0EE24FF248701EFEF9A
:10248000F0E06E2F679566276795902F9F77D7941A
:10249000DD24D7948E2F8695492F462B582F5D2902
:1024A000B701CA011F910F91FF90EF90DF9008953F
:1024B000FC01DB01408151812281622F6F7770E046
:1024C000221F2227221F9381892F880F822B282FDA
:1024D00030E0991F9927991F11969C931197211508
:1024E0003105A9F5411551056105710511F482E029
:1024F00037C082E89FEF13969C938E9312979A01B0
:10250000AB0167E0220F331F441F551F6A95D1F7B7
:1025100083E08C930DC0220F331F441F551F12966A
:102520008D919C911397019713969C938E9312977C
:10253000203080E0380780E0480780E4580758F3EF
:1025400014962D933D934D935C93179708952F3FC9
:10255000310579F4411551056105710519F484E0DF
:102560008C93089564FF03C081E08C9312C01C9289
:1025700010C02F57304013963C932E93129783E050
:102580008C9387E0440F551F661F771F8A95D1F7FC
:10259000706414964D935D936D937C931797089593
:1025A000629FD001739FF001829FE00DF11D649F37
:1025B000E00DF11D929FF00D839FF00D749FF00DC3
:1025C000659FF00D9927729FB00DE11DF91F639F64
:1025D000B00DE11DF91FBD01CF011124089597FB36
:1025E000092E07260AD077FD04D02ED006D0002071
:1025F0001AF4709561957F4F0895F6F7909581953F
:102600009F4F0895A1E21A2EAA1BBB1BFD010DC00E
:10261000AA1FBB1FEE1FFF1FA217B307E407F50792
:1026200020F0A21BB30BE40BF50B661F771F881F6E
:10263000991F1A9469F760957095809590959B0104
:10264000AC01BD01CF010895AA1BBB1B51E107C01E
:10265000AA1FBB1FA617B70710F0A61BB70B881F32
:10266000991F5A95A9F780959095BC01CD010895C1
:102670002F923F924F925F926F927F928F929F9292
:10268000AF92BF92CF92DF92EF92FF920F931F9380
:10269000CF93DF93CDB7DEB7CA1BDB0B0FB6F89431
:1026A000DEBF0FBECDBF09942A88398848885F8471
:1026B0006E847D848C849B84AA84B984C884DF80E2
:1026C000EE80FD800C811B81AA81B981CE0FD11DC6
:1026D0000FB6F894DEBF0FBECDBFED010895F8949C
:0226E000FFCF2A
:1026E2003F065B4F666D7D277F6F777C395E797120
:1026F20000008000C000E000F000F800FC00FE00D6
:10270200FF0001020408010204081020408000506A
:10271200793E3F898989FFFFFF0100010204081009
:1027220020408000000100020001000300010002BD
:102732000001000400010002000100030001000288
:102742000001000500010002000100030001000277
:102752000001000400010002000100030001000268
:102762000001000600010002000100030001000256
:102772000001000400010002000100030001000248
:102782000001000500010002000100030001000237
:102792000001000400010002000100030001000228
:1027A2000001000700010002000100030001000215
:1027B2000001000400010002000100030001000208
:1027C20000010005000100020001000300010002F7
:1027D20000010004000100020001000300010002E8
:1027E20000010006000100020001000300010002D6
:1027F20000010004000100020001000300010002C8
:1028020000010005000100020001000300010002B6
:1028120000010004000100020001000300010002A7
:10282200000100000000000000000000010202039D
:102832000303030404040404040404050505050554
:102842000505050505050505050505060606060631
:102852000606060606060606060606060606060616
:102862000606060606060606060606070707070701
:1028720007070707070707070707070707070707E6
:1028820007070707070707070707070707070707D6
:1028920007070707070707070707070707070707C6
:1028A20007070707070707070707070808080808B1
:1028B2000808080808080808080808080808080896
:1028C2000808080808080808080808080808080886
:1028D2000808080808080808080808080808080876
:1028E2000808080808080808080808080808080866
:1028F2000808080808080808080808080808080856
:102902000808080808080808080808080808080845
:102912000808080808080808080808080808080835
:0C29220008080808080808080808080051
:04000005008001393D
:00000001FF
